:020000040000FA
:100000000802002055010000BB020000A902000008
:10001000B902000015020000D5030000FFFFFFFF3A
:10002000FFFFFFFFFFFFFFFFFFFFFFFF07030000D2
:100030003D020000FFFFFFFF050300000903000071
:100040006F0100006F0100006F0100006F010000F0
:100050006F0100006F0100006F0100006F010000E0
:100060006F0100006F0100006F0100006F010000D0
:100070006F0100006F0100006F0100006F010000C0
:100080006F0100006F0100006F0100006F010000B0
:100090006F0100006F0100006F0100006F010000A0
:1000A0006F0100006F010000FFFFFFFF6F01000004
:1000B0006F0100006F0100006F0100006F01000080
:1000C0006F0100006F0100006F0100006F01000070
:1000D0006F010000FFFFFFFFFFFFFFFFFFFFFFFFBC
:1000E000FFFFFFFF6F0100006F0100006F010000C4
:1000F0006F0100006F0100006F0100006F01000040
:100100006F0100006F0100006F0100006F0100002F
:100110006F0100006F010000FFFFFFFF6F01000093
:100120006F0100006F0100006F0100006F0100000F
:100130006F0100006F0100006F010000FFFFFFFF73
:10014000FFFFFFFFFFFFFFFFFFFFFFFFFFFFFFFFBF
:100150006F0100000648804706480047FEE7FEE7BB
:10016000FEE7FEE7FEE7FEE7FEE7FEE7FEE7FEE767
:100170000D03000079010000DFF80CD000F006F854
:1001800000480047F503000008020020064C074D18
:1001900006E0E06840F0010394E807009847103457
:1001A000AC42F6D3FFF7ECFF18050000380500005D
:1001B0002DE9F0479146164A4FF0FF0A02EBC005C1
:1001C000002200240AFA02F02346084219D04FF018
:1001D000010C00200CFA02FC4FF00F0821FA00F687
:1001E00016EA0C0F06D0860008FA06F73C4309FA17
:1001F00006F73B43401C0828F0D32868A043184367
:10020000286008322D1D082ADBDDBDE8F0870000DC
:1002100020200240FEE70000F0B5074F7C6AFD6A2F
:100220003E6B84438D43964313B104430D43164301
:100230007C62FD623E63F0BD008008407047002292
:1002400041F2707304E00021491C9942FCD3521C16
:100250008242F8D37047002A026801D00A4300E0C6
:100260008A4302607047002A426801D00A4300E0D6
:100270008A434260704742B1012A09D082688A43AA
:100280008260C2688A43C260704782680A43F7E7A7
:10029000C2680A43C26082688A43826070470AB1BA
:1002A0004162704781627047024801680029FCD0B2
:1002B0007047000000000020FEE770470F4A0E481C
:1002C0000121C2F800130E4903E0D1F80821272AC2
:1002D00003D0401EF9D101207047D1F82402D1F893
:1002E0002432C043C1F82402D1F824228242F9D139
:1002F000C1F8243200207047006CDC020080084006
:1003000000A00640704770477047000070B52B484A
:100310001021C0F80C110121C0F80013284D2960EC
:10032000284AD2F80831272BFBD1426A22F44062D6
:100330004262254AC2F8AC10D2F80C31002BFBD037
:10034000436823F00703DB1C4360436BDB439B0FD5
:10035000FBD11E4CD4F8003223F007035B1CC4F819
:10036000003200230362C2F8A4301162C2F8A81060
:10037000D2F80861002EFBD02B6013624FF010639F
:100380008361C2F8A410D2F80431002BFBD0D4F85A
:10039000002222F00702D21CC4F800220162426847
:1003A00022F00302521C4260426BB1EB927FFBD100
:1003B000074801610163C16170BD00000080084011
:1003C0001806104300A0064000001043000008403B
:1003D00000400043FEE702E008C8121F08C1002ADF
:1003E000FAD170477047002001E001C1121F002AB6
:1003F000FBD170474FF4F8104FF4804140220123A5
:10040000FFF70AFFFFF75AFF00B1FEE70122D4030E
:1004100021460220FFF7CCFE002202210420FFF734
:10042000C7FE042100220846FFF7C2FE354D002218
:1004300021462846FFF70FFF334E002202213046A7
:10044000FFF709FF002204213046FFF704FF0122D5
:1004500021462846FFF70FFF002202213046FFF712
:100460000AFF002204213046FFF705FF0122214642
:100470002846FFF7F8FE012202213046FFF7F3FE7F
:10048000012204213046FFF7EEFEA5100022294686
:100490000120FFF78DFEE611002231460320FFF711
:1004A00087FE0022671139461046FFF781FE174C80
:1004B000012229462046FFF7CEFE0122314614488C
:1004C000FFF7C9FE012239461248FFF7C4FE002299
:1004D00029462046FFF7E3FE40F2FF1640F2FF57A1
:1004E000002229462046FFF7DAFE3046FFF7A7FE36
:1004F000012229462046FFF7D2FE3846FFF79FFE2D
:10050000EEE7000000400B4000800B4000200B4055
:1005100000600B4000000B40380500000000002088
:1005200004000000D60300003C0500000400002089
:0C05300004020000E603000000000000D0
:0400000500000155A1
:00000001FF
