:020000040000FA
:100000000802002055010000830200007102000078
:1000100081020000150200009D030000FFFFFFFFAA
:10002000FFFFFFFFFFFFFFFFFFFFFFFFCF0200000B
:100030003D020000FFFFFFFFCD020000D1020000E3
:100040006F0100006F0100006F0100006F010000F0
:100050006F0100006F0100006F0100006F010000E0
:100060006F0100006F0100006F0100006F010000D0
:100070006F0100006F0100006F0100006F010000C0
:100080006F0100006F0100006F0100006F010000B0
:100090006F0100006F0100006F0100006F010000A0
:1000A0006F0100006F010000FFFFFFFF6F01000004
:1000B0006F0100006F0100006F0100006F01000080
:1000C0006F0100006F0100006F0100006F01000070
:1000D0006F010000FFFFFFFFFFFFFFFFFFFFFFFFBC
:1000E000FFFFFFFF6F0100006F0100006F010000C4
:1000F0006F0100006F0100006F0100006F01000040
:100100006F0100006F0100006F0100006F0100002F
:100110006F0100006F010000FFFFFFFF6F01000093
:100120006F0100006F0100006F0100006F0100000F
:100130006F0100006F0100006F010000FFFFFFFF73
:10014000FFFFFFFFFFFFFFFFFFFFFFFFFFFFFFFFBF
:100150006F0100000648804706480047FEE7FEE7BB
:10016000FEE7FEE7FEE7FEE7FEE7FEE7FEE7FEE767
:10017000D502000079010000DFF80CD000F006F88D
:1001800000480047BD03000008020020064C074D50
:1001900006E0E06840F0010394E807009847103457
:1001A000AC42F6D3FFF7ECFF5804000078040000DF
:1001B0002DE9F0479146164A4FF0FF0A02EBC005C1
:1001C000002200240AFA02F02346084219D04FF018
:1001D000010C00200CFA02FC4FF00F0821FA00F687
:1001E00016EA0C0F06D0860008FA06F73C4309FA17
:1001F00006F73B43401C0828F0D32868A043184367
:10020000286008322D1D082ADBDDBDE8F0870000DC
:1002100020200240FEE70000F0B5074F7C6AFD6A2F
:100220003E6B84438D43964313B104430D43164301
:100230007C62FD623E63F0BD008008407047002292
:1002400041F2707304E00021491C9942FCD3521C16
:100250008242F8D37047002A026801D00A4300E0C6
:100260008A43026070470AB14162704781627047F9
:10027000024801680029FCD07047000000000020FF
:10028000FEE770470F4A0E480121C2F800130E49DD
:1002900003E0D1F80821272A03D0401EF9D101201C
:1002A0007047D1F82402D1F82432C043C1F82402A7
:1002B000D1F824228242F9D1C1F8243200207047BB
:1002C000006CDC020080084000A0064070477047C8
:1002D0007047000070B52B481021C0F80C110121A7
:1002E000C0F80013284D2960284AD2F80831272B7E
:1002F000FBD1426A22F440624262254AC2F8AC1045
:10030000D2F80C31002BFBD0436823F00703DB1C31
:100310004360436BDB439B0FFBD11E4CD4F8003290
:1003200023F007035B1CC4F8003200230362C2F809
:10033000A4301162C2F8A810D2F80861002EFBD0D8
:100340002B6013624FF010638361C2F8A410D2F8DF
:100350000431002BFBD0D4F8002222F00702D21C7B
:10036000C4F800220162426822F00302521C42607B
:10037000426BB1EB927FFBD1074801610163C16120
:1003800070BD0000008008401806104300A0064021
:10039000000010430000084000400043FEE702E078
:1003A00008C8121F08C1002AFAD170477047002000
:1003B00001E001C1121F002AFBD170474FF48030C9
:1003C000811040220123FFF727FFFFF75BFF00B1F9
:1003D000FEE700224FF4806421461046FFF7E8FE56
:1003E0000122D60231460020FFF7E2FE194D01221C
:1003F00021462846FFF72FFF012231462846FFF706
:100400002AFF002221462846FFF72DFF0022314611
:100410002846FFF728FF40F2FF1740F2FF5801225D
:1004200021462846FFF71FFF002231462846FFF7E6
:100430001AFF3846FFF703FF002221462846FFF740
:1004400012FF012231462846FFF70DFF4046FFF715
:10045000F6FEE4E700000B407804000000000020F6
:10046000040000009E0300007C0400000400002043
:0C04700004020000AE03000000000000C9
:0400000500000155A1
:00000001FF
